:020000040800F2
:100000001805002005010008DF1600085316000837
:10001000DD160008710200088D18000800000000BD
:10002000000000000000000000000000E3160008CF
:100030007302000800000000E1160008E516000841
:100040001F0100081F0100081F0100081F01000810
:100050001F0100081F0100081F0100081F01000800
:100060001F0100081F0100081F0100081F010008F0
:100070001F0100081F0100081F0100081F010008E0
:100080001F0100081F0100081F0100081F010008D0
:10009000811800081F0100081F0100081F01000847
:1000A0001F0100081F0100081F0100081F010008B0
:1000B0001F0100081F0100081F0100081F010008A0
:1000C0001F0100081F0100081F0100081F01000890
:1000D0001F0100081F0100081F0100081F01000880
:1000E0001F0100081F0100081F010008DFF810D0E1
:1000F00000F042F800480047591A0008AFF30080AA
:10010000180500200648804706480047FEE7FEE73E
:10011000FEE7FEE7FEE7FEE7FEE7FEE7FEE7FEE7B7
:1001200061170008ED000008D2B201E000F8012BD1
:10013000491EFBD270470022F6E710B513460A4667
:1001400004461946FFF7F0FF204610BD30B50B46B8
:10015000014600202022012409E021FA02F59D42F7
:1001600005D303FA02F5491B04FA02F52844151ECB
:10017000A2F10102F1DC30BD064C074D06E0E0685B
:1001800040F0010394E8070098471034AC42F6D3DE
:10019000FFF7B0FF681B0008881B000870B5044615
:1001A00000688168C943C90717D1816821F001013E
:1001B000816000F0E7FD05460AE000BF00F0E2FDC7
:1001C000401B022804D920688068C043C00706D0BD
:1001D00020688068C043C007F0D0002070BDA06ACE
:1001E00040F01000A062E06A40F00100E0620120EF
:1001F00070BD0000F8B500260446009600688168CE
:10020000C943C9072DD0816841F0010181601648BA
:1002100016490068B0FBF1F000E0401E0090002895
:10022000FBD100F0AFFD054616E000BF00F0AAFDCF
:10023000401B022810D920688068C043C0070BD03B
:10024000A06A40F01000A062E06A40F00100E062A5
:1002500084F824600120F8BD20688068C043C0078E
:10026000E4D10020F8BD00001400002040420F003F
:10027000FEE77047F8B50024009490F82420254646
:10028000012A12D0012280F824204A681F23072A5D
:100290000DD20668776B521E02EB820293409F4399
:1002A0000B6893401F43776319E00220F8BD06688E
:1002B0000D2A0AD2376BD21F02EB820293409F4372
:1002C0000B6893401F43376309E0F76A0D3A02EB6E
:1002D000820293409F430B6893401F43F7620A6872
:1002E000072306680A2A0AD3F7680A3A02EB420291
:1002F00093409F438B6893401F43F76008E0376942
:1003000002EB420293409F438B6893401F43376147
:100310000A68102A01D0112A20D1124B02689A4291
:1003200017D193681B0219D4936843F400039360B8
:100330000968102912D10C490C4A0968B1FBF2F185
:1003400001EB8101490000E0491E00910029FBD129
:1003500004E0816A41F020018162012480F8245088
:100360002046F8BD002401401400002040420F0048
:100370000068C06C704700002DE9F0414FF00007A5
:1003800004003D467ED0A06A002628B9E66284F8C3
:100390002460204600F07EF82046FFF7FFFEA16AA9
:1003A000C90600D420B1A06A40F01000A06269E044
:1003B000A16A21F4885141F00201A1626268E169F9
:1003C000237B0A4347EA43010A43A1684FF480773D
:1003D000B94209D0012907D05FF0000194F814C098
:1003E000BCF1010F02D00AE03946F7E7F3B1A36A86
:1003F00043F02003A362E36A43F00103E36223684E
:10040000D3F804C02CF4694C4CEA010CC3F804C0C6
:1004100021688B68DFF870C003EA0C0313438B601C
:10042000A168B9420BD0012909D00CE0DFF85CC00B
:10043000A3690CEB43330B4343F40061DFE7218AEC
:100440000D05A5F580152168CB6A23F470032B43B5
:10045000CB62216889680E4B1940914208D1E6624F
:10046000A16A21F0020141F00101A162BDE8F08121
:10047000A06A20F0020040F01000A062E06A40F0A4
:100480000100E0620120F1E7FDF7E1FF00E0FFFF7E
:10049000FE0E1FFF00B585B0002100910191029171
:1004A000039100680E49884218D10E48816941F4D1
:1004B00000718161816901F400710491816941F0E9
:1004C000040181618069694600F004000490022003
:1004D000009003200190044800F064FB05B000BDCB
:1004E00000240140001002400008014070B504469D
:1004F00090F8240001280DD0012084F82400204623
:10050000FFF778FE02004FF0000005D084F82400C9
:10051000104670BD022070BDA16A40F201239943CC
:1005200041F48071A1621F4D23681F49AB4218D16D
:100530000E6816F4702F14D0A66A46F48016A662D0
:100540000E68760505D5A66A26F4005646F4805650
:10055000A662A66AF6040AD5E66A26F00606E662F0
:1005600006E0A66A26F48016A6625E68E9E7E06205
:1005700084F824006FF00200186020688368C3F3D9
:100580004243072B05D1A84208D1096811F4702F06
:1005900004D0816841F480118160B9E7816841F439
:1005A000A001F9E70028014004240140F0B590F8CB
:1005B00020500468A468012D05D0022D03D0416AA3
:1005C00041F480215DE014F0406F01D1E50055D584
:1005D000C4F30164022C03D9416A41F4000150E0E4
:1005E0000125A5401D608D684FF4C0739DB1CE6894
:1005F00035434E6845EAC605066803EB0417F55116
:100600004FF4C275076805EB04150E697E51097D2C
:10061000012905D009E00E88CD6845EA4655EBE78B
:1006200001684E5946F480764E511179D579567944
:1006300041EA056195792D0445EA062529434FF4E1
:10064000C676056806EB0416A9511178D57841EAFB
:100650000561957852782D0445EA022211434FF442
:10066000C475026805EB04155151006803EB0411D1
:10067000425842F0010242500020F0BD416A41F46C
:10068000001141620120F0BD10B590F820300268E1
:10069000012B07D0022B05D0416A41F48021416231
:1006A000012010BDD2F8000240F00100C2F80002A3
:1006B000087D00F01F0301209840D2F81C328343CC
:1006C000C2F81C32CB69B3B9D2F80C328343C2F8FA
:1006D0000C328C894B6864F31F434C6902EBC404F1
:1006E000C4F840320C890B6864F31F434C6902EB79
:1006F000C404C4F84432CB69012B16D1D2F80C32B1
:100700000343C2F80C320C884B6864F31F434C69F6
:1007100002EBC404C4F840320C89CB6864F31F4375
:100720004C6902EBC404C4F844328B69002BD2F844
:1007300004320FD053EA0003C2F804320B69002BD5
:10074000D2F8143208D00343C2F81432096A0129DE
:1007500004D008E08343EFE78343F5E7D2F81C12A7
:100760000143C2F81C12D2F8000220F00100C2F8C6
:100770000002002010BD70472DE9F05F05460068BB
:1007800000244669D0F804908768D0F80CB0D0F8FF
:1007900010A0D0F81880F10748D0F90714D0012133
:1007A0008160B80703D5284600F0E3F90CE078072C
:1007B00002D54FF4006407E0380702D54FF48054A7
:1007C00002E0284600F0D4F9F80516D529684FF460
:1007D00080708860B80503D5284600F0CCF90CE09D
:1007E000780502D544F4005407E0380502D544F4F6
:1007F000804402E0284600F0BDF9F80316D52968C8
:100800004FF480308860B80303D5284600F0B5F96E
:100810000CE0780302D544F4004407E0380302D525
:1008200044F4803402E0284600F0A6F9300707D5EA
:100830005FEACB6004D52968102044F40074C860D6
:1008400070074FF0080707D55FEA0B7004D52868DA
:10085000C760284600F05AF9B00706D52868C06876
:10086000800702D0284600F052F9700607D55FEAEB
:10087000CA6004D52968102044F480640861B00679
:1008800007D55FEA0A7004D528680761284600F09A
:100890003FF9F00606D528680069800702D028468F
:1008A00000F037F9B00308D55FEAC96005D52968BB
:1008B00010204860284600F02DF9F00307D55FEAC4
:1008C000097004D528684760284600F057F93004BD
:1008D00046D55FEA497040D5F00504D55FEAC87097
:1008E00001D044F00104B00504D55FEA887001D559
:1008F00044F00204700504D55FEA487001D544F065
:100900000404300529D518F0700F26D008F07000C7
:10091000402815D006DC102809D020280AD030281D
:1009200016D10AE050280ED0602811D10EE044F014
:1009300008040DE044F010040AE044F0200407E04D
:1009400044F0400404E044F0800401E044F4807486
:100950002868816921F0700181612968042048605C
:10096000002C05D0686A204368622846FFF703FF21
:10097000BDE8F09F70B5040003D094F8200010B1DA
:1009800004E0012070BD204600F082F82068016874
:1009900041F00101016000F0F5F90546052604E08B
:1009A00000F0F0F9401B0A2811D820684068C00701
:1009B000F6D02068016821F00201016000F0E2F940
:1009C00005460BE000F0DEF9401B0A2806D9606AF4
:1009D00040F40030606284F82060D2E7206840680C
:1009E0008007EFD4207E0128206801683DD021F0E7
:1009F00080010160607E01282068016838D021F004
:100A000040010160A07E01282068016833D021F0F8
:100A100020010160E07E0128206801682ED041F0AD
:100A200010010160207F01282068016829D021F091
:100A300008010160607F01282068016824D021F04E
:100A400004010160D4E902010843D4E9041211430E
:100A500008436168491E08432168C861002060623C
:100A6000012084F82000002070BD41F08001C0E723
:100A700041F04001C5E741F02001CAE721F0100133
:100A8000CFE741F00801D4E741F00401D9E70000C5
:100A900010B586B000210091019102910391006888
:100AA000174988422AD11748C16941F00071C161D4
:100AB000C16901F000710491816941F00401816113
:100AC0008069114C00F0040004904FF40060009025
:100AD0006946204600F066F8A014009002200190BC
:100AE000032003906946204600F05CF8002211467E
:100AF000142000F0B3F9142000F0A2F906B010BDE4
:100B00000064004000100240000801407047704738
:100B1000704770477047000070B5044690F8200099
:100B2000012804D0606A40F40020606218E00220CE
:100B300084F820002068016821F00101016000F0C4
:100B400021F905460EE000BF00F01CF9401B0A2801
:100B500008D9606A40F400306062052084F8200003
:100B6000012070BD20684068C007EDD1606270BD93
:100B70007047704770477047704770477047000074
:100B800070B5044600F0FEF80546601C02D004482B
:100B90000078044400F0F6F8401BA042FAD370BD80
:100BA000080000202DE9F84FDFF8B891002409F182
:100BB000040A0AF1040B23460F270BF1040EC9E0C7
:100BC0000125A5402A40AA427DD1674ED1F804C034
:100BD000ACEB0608B44532D014DCBCF1030F3AD0BC
:100BE00009DCBCF1000F2AD0BCF1010F1CD0BCF114
:100BF000020F31D11DE0BCF1110F17D0BCF1120F63
:100C00002AD119E0B8F5881F19D006DCB8F5803F65
:100C100015D0B8F5801F1FD111E0B8F5001F0ED018
:100C2000B8F5041F18D10AE0CB6815E0CB681B1D8E
:100C300012E0CB6808330FE0CB680C330CE08B6814
:100C40002BB1012B4FF0080303D0456104E00423CE
:100C500002E0056100E00023FF2A01D8064601E01A
:100C600000F104064FEA840501D9A5F12005D6F864
:100C7000008007FA05FC28EA0C0803FA05F548EAA3
:100C80000508C6F800804D68ED0062D5374DAE69A5
:100C900046F00106AE61AD6924F0030605F00105DA
:100CA0000095334D06EB050CDCF80850A607360F0F
:100CB00007FA06F825EA0805DFF8B880404503D1B1
:100CC0004FF0000817E044E0DFF8AC80404502D167
:100CD0004FF001080FE0DFF8A480404502D14FF04B
:100CE000020808E0DFF89880404502D14FF0030881
:100CF00001E04FF0040808FA06F848EA0508CCF8C5
:100D000008804D68D9F80060ED034D4601D51643C3
:100D100000E096432E604D68DAF80060AD0355465A
:100D200001D5164300E096432E604D68DBF8006065
:100D3000ED025D4601D5164300E096432E604D68F6
:100D4000DEF80060AD02754601D5164300E096431B
:100D50002E60641C0D682A46E5407FF431AFBDE883
:100D6000F88F000000040140000011100010024044
:100D70000000014000080140000C0140001001404B
:100D800000140140014880687047000008000020FE
:100D90000248816802781144816070470800002091
:100DA000074810B5016841F010010160032000F010
:100DB00075F8002000F006F800F024F8002010BDBF
:100DC0000020024070B50D4D04464FF47A7128782A
:100DD000B1FBF0F00A490968B1FBF0F000F062FBEA
:100DE00048B9102C07D200222146501E00F036F8D8
:100DF00000206C6070BD012070BD00000800002064
:100E0000140000200C4808B5816941F0010181619E
:100E1000816901F001010091C16941F08051C16116
:100E2000C06900F0805000900448416821F0E06102
:100E300041F00071416008BD001002400000014017
:100E4000002809DB00F01F020121914040098000C9
:100E500000F1E020C0F8001170470000F0B40E4B24
:100E60001B680C46C3F30223C3F10705042D00D908
:100E70000425191D072901D2002300E0DB1E0126ED
:100E800006FA05F1491E214099409E40761E164003
:100E90003143F0BC00F010BD0CED00E0064900F05D
:100EA000070208684FF6FF03184040EA0220034A91
:100EB00010430860704700000CED00E00000FA05E8
:100EC0002DE9F84305460078354CC00754D0E06959
:100ED0000026C00008D4E06940F08050E061E0697D
:100EE000012600F0805000902E480168C90512D4F8
:100EF0000168804641F480710160FFF743FF0746B7
:100F000005E000BFFFF73EFFC01B642823D8D8F8D8
:100F10000000C005F6D5206A10F4407021D0A988E1
:100F200001F4407181421CD0206A1F49012220F443
:100F300040700A6000220A602062C00711D0FFF7EB
:100F400021FF074641F2883808E000BFFFF71AFF8B
:100F5000C11B414502D90320BDE8F883206A800700
:100F6000F4D5206A696820F44070084320621EB1FD
:100F7000E06920F08050E0612878800705D560683E
:100F8000A96820F44040084360602878C00605D571
:100F90006068E96820F48000084360600020DBE7B7
:100FA0000010024000700040400442422DE9F0472A
:100FB0000F46050061D0434E306800F00700B8428C
:100FC00009D2306820F0070038433060306800F004
:100FD0000700B84251D128683B4C810712D5400721
:100FE00003D5606840F4E06060602878000703D5AE
:100FF000606840F4605060606068A96820F0F000AC
:10100000084360602878C00728D06868012810D09D
:101010002168022810D0890700292EDA616821F0A2
:10102000030101436160FFF7ADFE804641F288395C
:101030000DE021688903EFE78901EDE7FFF7A2FEE4
:10104000A0EB0801494502D90320BDE8F08760689C
:10105000696800F00C00B0EB810FEFD1306800F050
:101060000700B8420BD9306820F0070038433060E1
:10107000306800F00700B84201D00120E5E7287889
:10108000400705D56068E96820F4E06008436060C7
:101090002878000706D56068296920F4605040EA86
:1010A000C100606000F038F86168084AC1F30311BC
:1010B000515CC8400649086006480068FFF782FE98
:1010C0000020C2E70020024000100240501B000830
:1010D000140000200C0000200448054900684968FD
:1010E000044AC1F30221515CC8407047140000203B
:1010F00000100240601B0008044805490068496868
:10110000044AC1F3C221515CC8407047140000205A
:1011100000100240601B000812A185B00FC98DE8C5
:101120000F0014A0144A006804905168134801F09D
:101130000C03042B10D0082B0ED1C1F38343C90339
:101140001DF803000AD5516804AAC1F34041515C5F
:101150000A4A5043B0FBF1F005B0704708494843D4
:10116000FAE7000002030405060708090A0B0C0D44
:101170000E0F1010010200000010024000127A0051
:1011800000093D002DE9F84F040070D02078C04DD3
:10119000C00749D06868C0F38100012807D068689B
:1011A000C0F38100022809D16868C00306D5286809
:1011B000800339D560680028E7D035E06068B0F575
:1011C000803F0BD010B1B0F5A02F11D0286820F4CB
:1011D00080302860286820F4802002E0286840F4ED
:1011E00080302860606890B1FFF7CCFD06460AE0C9
:1011F000286840F480202860F0E700BFFFF7C2FDB8
:10120000801B642873D828688003F7D50CE0FFF7AB
:10121000B9FD064605E000BFFFF7B4FD801B64285A
:10122000F0D828688003F7D420789A4E80074FF0D2
:1012300001094FF0000839D5686810F00C0F07D08D
:101240006868C0F38100022809D16868C00306D429
:101250002868800714D52069012808D110E020698A
:10126000B0B1C6F80090FFF78DFD074605E00AE132
:10127000FFF788FDC01B0228C4D828688007F7D56F
:101280002868616920F0F80040EAC10028600DE09C
:10129000C6F80080FFF776FD074604E0FFF772FD11
:1012A000C01B022823D828688007F7D420780007BD
:1012B0002CD57948A169D9B1C0F80090FFF762FD3B
:1012C000074604E0FFF75EFDC01B02280FD8686ADE
:1012D0008007F7D571484FF4FA510068B0FBF1F080
:1012E000009000BF0098411E0091FAD20EE080E00D
:1012F000C0F80080FFF746FD074604E0FFF742FD17
:10130000C01B022875D8686A8007F7D42078400788
:1013100060D5E8690027C00008D4E86940F0805033
:10132000E861E869012700F0805000905C4801689E
:10133000C90513D40168834641F480710160FFF749
:1013400021FD824606E000BFFFF71CFDA0EB0A006E
:1013500064284ED8DBF80000C005F5D5E068012808
:101360000AD008B1052813D0286A20F001002862AD
:10137000286A20F0040002E0286A40F00100286298
:10138000E06841F2883B98B1FFF7FCFC82460BE035
:10139000286A40F004002862EEE700BFFFF7F2FC85
:1013A000A0EB0A0159455AD8286A8007F6D50CE007
:1013B000FFF7E8FC824605E0FFF7E4FCA0EB0A013A
:1013C00059454CD8286A8007F6D41FB1E86920F047
:1013D0008050E861E06988B36968C1F3810102293E
:1013E00044D00228C6F8608004D0FFF7CBFC044646
:1013F00038E034E0FFF7C6FC074604E0FFF7C2FC24
:10140000C01B02282BD828688001F7D4206AB0F5C9
:10141000803F05D16868A16820F400300843686007
:10142000D4E908010843696821F47411084368602D
:10143000C6F86090FFF7A6FC044606E025E000BF72
:10144000FFF7A0FC001B022809D828688001F7D507
:101450001BE000BFFFF796FC001B022802D9032007
:10146000BDE8F88F28688001F4D40EE00128F7D099
:101470006868226A00F48031914204D1616A00F404
:101480007010884201D00120EAE70020E8E7000060
:10149000001002400000424280044242140000203A
:1014A0000070004010B5401EB0F1807F01D30120D4
:1014B00010BD4FF0E02460610F21601700F0FCF9CF
:1014C0000020A06107202061002010BD70B504003D
:1014D00004D094F83D00002510B106E0012070BD55
:1014E00084F83C50204600F023F8242084F83D0086
:1014F0002068C16821F40051C160204600F032F933
:101500002068016921F4904101612068416921F05E
:101510002A0141612068C16841F40051C16025641D
:10152000202084F83D0084F83E00002070BD0000BB
:1015300030B585B0002400940194029403940068AF
:101540001449884224D11448816941F48041816161
:10155000816901F480410491816941F00401816154
:1015600080690E4D00F0040004904FF4007000906C
:10157000022001900320039069462846FFF712FBE2
:101580002815CDE90004694628460294FFF70AFBB6
:1015900005B030BD00380140001002400008014095
:1015A0002DE9F843044690F83D001F4616460D46C7
:1015B00020284CD1C5B1BEB194F83C00012846D0DA
:1015C000012084F83C004FF00008C4F8408021203E
:1015D00084F83D00FFF7D6FBA6848146E684A06828
:1015E000B0F5805F03D004E00120BDE8F8832069F6
:1015F00028B12E465FF0000584F83C800EE00026FE
:10160000FAE78021204600F009F9A0B9AEB116F83A
:10161000010B21684860E08C401EE084E08C4B4662
:101620004FF0000200970028EBD14FF04001204618
:1016300000F0F4F830B10320D7E735F8020BC0F31F
:101640000800E6E7202084F83D000020CDE70220D6
:10165000CBE7FEE73EB500241048009401940294C5
:101660000D498460016001250573047505614FF41F
:1016700060214460C161FEF77FFE08B172B6FEE7EB
:101680000095CDE9015469460448FEF7F3FD0028B2
:1016900001D072B6FEE73EBD002401403C000020B0
:1016A0000D4810B50B4901600921416000214FF43C
:1016B00080328160C0E90312416101764176817612
:1016C000C17601774177FFF755F9002801D072B64E
:1016D000FEE710BD006400406C000020FEE7FEE75E
:1016E00070477047FFF754BB30B593B02821684668
:1016F000FEF721FD14210AA8FEF71DFD002501209B
:101700000F9510951195010412958DE82300049012
:101710004FF4E010CDE90810022407946846FFF763
:1017200031FD08B172B6FEE70AA90F2081E8310049
:101730004FF48060CDE90D0502210AA8FFF736FCC1
:1017400008B172B6FEE74FF4004011900F940FA855
:10175000FFF7B6FB002801D072B6FEE713B030BD2C
:101760007047000070B5044600680169E26821F422
:101770004051114301612169A06808436169084330
:101780002168CA6841F20C639A430243CA60206828
:101790004169A26921F44071114341611E492068E9
:1017A000884202D1FFF7A8FC01E0FFF795FC00EBAF
:1017B000C00101EB0012606864218000B2FBF0F30D
:1017C000B3FBF1F36FF018067343B2FBF0F5B2FB15
:1017D000F0F605EB8305322303EB0515B5FBF1F5B8
:1017E000B6FBF1F605F0F00505EB0615B2FBF0F6D9
:1017F000B2FBF0F0B0FBF1F06FF01802504306EBD3
:10180000800003EB0010B0FBF1F0216800F00F0046
:101810002844886070BD0000003801402DE9F04187
:10182000984617460E460446069D1DE0681C1BD0D0
:101830002DB1FFF7A7FAA0EB0800A84214D9206841
:10184000C16821F4D071C1602068416921F00101B3
:101850004161202084F83D0084F83E00002084F897
:101860003C000320BDE8F0812068006836EA0000F3
:1018700004D00020B842D9D00020F3E70120F9E7D6
:101880000148FEF779BF00006C000020FEE7000071
:101890000FB4084B10B504A902AA039800F02CF865
:1018A000044602A9002000F0D1F8204610BC5DF8E3
:1018B00014FB00004D1A00080907090E002804DB7C
:1018C00000F1E02080F80014704700F00F0000F1F4
:1018D000E02080F8141D704702E008C8121F08C1FC
:1018E000002AFAD170477047002001E001C1121FA1
:1018F000002AFBD1704700002DE9FF4F89B09B46BD
:101900000446002506E025280BD05A460B9990473F
:10191000641C6D1C20780028F5D10DB02846BDE868
:10192000F08F0027B8460122474900E0074314F82A
:10193000013F203B02FA03F00842F7D120782E281D
:1019400019D114F8010F47F004072A280ED06FF0C0
:101950002F022078A0F1300109290CD808EB88016A
:1019600002EB410100EB0108641CF2E70A98641CD9
:1019700050F8048B0A9020780028CED0642808D034
:10198000692806D075281ED05A460B9990476D1CC1
:1019900058E00A994FF00A0901C90A91002802DAB1
:1019A00040422D2102E0390504D52B218DF820106D
:1019B000012103E0F90704D02021F7E78A4608AEA9
:1019C0000DE00021FAE70A994FF00A0901C90A91CE
:1019D000F7E74946FEF7BAFB303106F8011D00284B
:1019E000F7D1ADEB060000F12009780701D44FF0E4
:1019F0000108C84502DDA8EB090000E00020804690
:101A0000002706E008A85A46C05D0B9990476D1C58
:101A10007F1C5745F6DB04E030205A460B9990476F
:101A20006D1CB8F10001A8F10108F5DC05E016F81D
:101A3000010B5A460B9990476D1CB9F10001A9F1B1
:101A40000109F4DC641C65E7092801000A68531CDD
:101A50000B6010707047000008B5FFF7A1F9FFF7A1
:101A600043FE3348816941F020018161816901F0C1
:101A700020010091816941F004018161806900F0D9
:101A800004000090FFF70CFEFFF7E4FD2A48294907
:101A9000002401604FF41651C0E901140C21C46008
:101AA000C0E904418461C461FFF710FD08B172B65A
:101AB000FEE72148012144308460C0E90341016010
:101AC0001830446104610460446084608461C0E94A
:101AD000074101468438FEF7D7FD17482838FFF73D
:101AE0001BF815485838FEF701FD144C12485838B9
:101AF000FEF73EFCC2B21048227011A17C38FFF7FD
:101B0000C7FE0D49642323227C390B48FFF748FDAB
:101B10006420FFF735F8094B07491B1D44311A1F94
:101B2000A1F16C00FEF742FD6420FFF729F8DDE724
:101B30000010024000380140940000200000002006
:101B400044697374616E6365203D2025640D0A004D
:101B5000000000000000000001020304060708095D
:101B60000000000001020304881B000800000020A0
:101B700018000000D8180008A01B0008180000205A
:101B800000050000E8180008000000000000000048
:101B90000100000010000000000000000024F4001C
:04000005080000ED02
:00000001FF
